:020000040000FA
:0400000007EF00F016
:100008007F820CED2AF091EF28F0000E00019B6F23
:10001800000E9A6F72C0ACF073C0ADF074C0AEF051
:1000280075C0AFF0AFAF16D0000E9B6F010E9A6F80
:10003800ACC001F0ADC002F0AEC003F0AFC004F038
:10004800F5EC29F001C0ACF002C0ADF003C0AEF091
:1000580004C0AFF0000E0001B36F000EB26F84C190
:100068009FF085C1A0F09A519B11D8A403D001013B
:1000780088A514D000019A519B11D8A404D0000E71
:10008800856F2B0E03D0000E856F2D0E846F84C0F4
:1000980000F2B24BB32B9F07D8A0A007ACC001F069
:1000A800ADC002F0AEC003F0AFC004F0E7EC1FF043
:1000B80001040210D8A44CD0BF0E776EFF0E786EE4
:1000C8007650796E7A6A7750792678507A227A5003
:1000D80006E11A0E795CD8B002D0010E01D0000EEC
:1000E8000001866F876B86518711D8B40DD0000E3A
:1000F800B225016E020EB321026EE90E036EFF0EE9
:10010800046E83EC27F00CD0000EB225016E020EAF
:10011800B321026EF10E036EFF0E046E83EC27F01E
:100128000001FD0E9F27FF0EA02370C015F071C0BF
:1001380016F0000E176E020E186E9FC019F0A0C0C0
:100148001AF04FEC21F015C070F016C071F01200D3
:10015800ACC001F0ADC002F0AEC003F0AFC004F017
:10016800E7EC1FF001500210D8A44CD0BF0E776EF8
:10017800FF0E786E7650796E7A6A775079267850C5
:100188007A227A5006E11A0E795CD8B002D0010EB4
:1001980001D0000E0001886F896B88518911D8B48D
:1001A8000DD0000EB225016E020EB321026EED0EC7
:1001B800036EFF0E046E83EC27F00CD0000EB22500
:1001C800016E020EB321026EF50E036EFF0E046E71
:1001D80083EC27F00001FD0E9F27FF0EA02370C0BF
:1001E80015F071C016F0000E176E020E186E9FC043
:1001F80019F0A0C01AF04FEC21F015C070F016C02D
:1002080071F01200000E0001B46F000EB56F800E81
:10021800B66F3F0EB76F000EB16F000EB06FACC077
:1002280001F0ADC002F0AEC003F0AFC004F0000EA4
:10023800056E000E066E000E076E000E086E64EC6A
:1002480023F0D8A01ED076D0B4C02DF0B5C02EF0C3
:10025800B6C02FF0B7C030F0000E316E000E326E0F
:10026800200E336E410E346EA4EC0AF02DC0B4F0AB
:100278002EC0B5F02FC0B6F030C0B7F00001B04BBB
:10028800B12BACC064F0ADC065F0AEC066F0AFC0D5
:1002980067F0000E316E000E326E200E336E410E86
:1002A800346EB4C02DF0B5C02EF0B6C02FF0B7C074
:1002B80030F0A4EC0AF02DC068F02EC069F02FC011
:1002C8006AF030C06BF07FEC1FF0D8A01FD0BCD70D
:1002D800B4C001F0B5C002F0B6C003F0B7C004F076
:1002E800000E056E000E066E200E076E410E086E9B
:1002F8002FEC12F001C0B4F002C0B5F003C0B6F0A4
:1003080004C0B7F00001B007D8A0B107ACC064F0D2
:10031800ADC065F0AEC066F0AFC067F0B4C068F0BD
:10032800B5C069F0B6C06AF0B7C06BF07FEC1FF0DB
:10033800D8A0CED776C007F0086AFCEC27F00750A3
:100348000001A16FA1C09EF0670EA119D8A41BD00F
:10035800010186518711D8A404D0000E876F010EC1
:10036800866F87BF05D0875109E18605D8B006D0CA
:10037800000E00019D6F060E9C6F09D086C19CF08F
:1003880087C19DF004D0010187AFF8D7F1D7670E78
:100398000001A119D8A422D0B1AF06D0FC0EB05DDF
:1003A800FF0EB159D8A018D0FF0E776EFF0E786EE9
:1003B8009CC079F09DC07AF07750792678507A22DF
:1003C800B051795C7A50800A7B6EB151800A7B58B3
:1003D800D8A002D0660E01D0650E9E6F9CC094F026
:1003E8009DC095F0670EA119D8A405D0660E9E1978
:1003F800D8B4B1AF02D0944B952B660E9E19D8A4F1
:1004080016D0B1AF0CD0000EB46F000EB56F800ED1
:10041800B66F3F0EB76F000EB16F000EB06F670E6C
:10042800A119D8B404D0B0519427B1519523000E26
:10043800AB6F000EAA6FACC0A2F0ADC0A3F0AEC007
:10044800A4F0AFC0A5F0B4C080F0B5C081F0B6C0CC
:1004580082F0B7C083F07BD0A2C001F0A3C002F045
:10046800A4C003F0A5C004F0B4C005F0B5C006F000
:10047800B6C007F0B7C008F02FEC12F001C01AF0B0
:1004880002C01BF003C01CF004C01DF0DCEC16F029
:100498001AC0A6F01BC0A7F01CC0A8F01DC0A9F088
:1004A800A6C001F0A7C002F0A8C003F0A9C004F0DC
:1004B8004DEC20F001C098F002C099F0A2C05CF0A9
:1004C800A3C05DF0A4C05EF0A5C05FF0B4C031F079
:1004D800B5C032F0B6C033F0B7C034F0A6C02DF0C6
:1004E800A7C02EF0A8C02FF0A9C030F0A4EC0AF0E5
:1004F8002DC060F02EC061F02FC062F030C063F0F4
:10050800B4EC28F05CC0A2F05DC0A3F05EC0A4F01B
:100518005FC0A5F0B4C001F0B5C002F0B6C003F0EA
:10052800B7C004F0000E056E000E066E200E076EB2
:10053800410E086E2FEC12F001C0B4F002C0B5F005
:1005480003C0B6F004C0B7F00001AA4BAB2B94511E
:10055800AA5DAB51800A776E9551800A7758D8A06A
:100568007BD7B4C02DF0B5C02EF0B6C02FF0B7C001
:1005780030F0000E316E000E326EA00E336E400E5B
:10058800346EA4EC0AF02DC0A6F02EC0A7F02FC040
:10059800A8F030C0A9F0A2C064F0A3C065F0A4C060
:1005A80066F0A5C067F0A6C068F0A7C069F0A8C04B
:1005B8006AF0A9C06BF07FEC1FF0D8B003D0000E32
:1005C800000118D0A2C001F0A3C002F0A4C003F03B
:1005D800A5C004F0A6C005F0A7C006F0A8C007F0A3
:1005E800A9C008F064EC23F0D8A00BD0000198B1A2
:1005F80008D0000EA66F000EA76F000EA86F000EA1
:10060800A96FACC04CF0ADC04DF0AEC04EF0AFC05D
:100618004FF0A6C050F0A7C051F0A8C052F0A9C032
:1006280053F0EFEC0DF04CC0A2F04DC0A3F04EC05B
:10063800A4F04FC0A5F080C0B4F081C0B5F082C06E
:10064800B6F083C0B7F0650E00019E19D8B405D086
:10065800B0C096F0B1C097F004D0000E976F000EAE
:10066800966F000E936F000E926F000E916F000E42
:10067800906F000EAB6F000EAA6FC8D0A2C001F039
:10068800A3C002F0A4C003F0A5C004F0B4C005F0F4
:10069800B5C006F0B6C007F0B7C008F02FEC12F0EE
:1006A80001C01AF002C01BF003C01CF004C01DF00A
:1006B800DCEC16F01AC0A6F01BC0A7F01CC0A8F00E
:1006C8001DC0A9F0A6C001F0A7C002F0A8C003F0A1
:1006D800A9C004F04DEC20F001C098F002C099F0D8
:1006E800010188B90DD0000198519911D8A408D0FA
:1006F800670EA119D8B497AF03D0904B912B3AD07D
:10070800000192519311D8B497AF22D0000EB225B0
:10071800D96E020EB321DA6E2E0EDF6EB24BB32BFA
:100728009F07D8A0A007000E936F010E926F10D0FC
:10073800000EB225D96E020EB321DA6E300EDF6ECE
:10074800B24BB32B9F07D8A0A0079007D8A091075A
:1007580090519111D8A4ECD7000EB225D96E020E93
:10076800B321DA6E9851300FDF6EB24BB32B9F076F
:10077800D8A0A007A2C05CF0A3C05DF0A4C05EF042
:10078800A5C05FF0B4C031F0B5C032F0B6C033F0E8
:10079800B7C034F0A6C02DF0A7C02EF0A8C02FF027
:1007A800A9C030F0A4EC0AF02DC060F02EC061F0B2
:1007B8002FC062F030C063F0B4EC28F05CC0A2F047
:1007C8005DC0A3F05EC0A4F05FC0A5F0B4C001F0A6
:1007D800B5C002F0B6C003F0B7C004F0000E056E55
:1007E800000E066E200E076E410E086E2FEC12F0FA
:1007F80001C0B4F002C0B5F003C0B6F004C0B7F051
:1008080000019607D8A09707AA4BAB2B9451AA5D75
:10081800AB51800A776E9551800A7758D8B008D0C6
:10082800B3BF2CD7B35104E14B0EB25DD8A026D785
:1008380092519311D8A40ED0010188A90BD0000EB3
:100848000001B225D96E020EB321DA6E2E0EDF6ECC
:10085800B24BB32B000E0001B225D96E020EB321A4
:10086800DA6E000EDF6E650E9E19D8A4ADD0000EAC
:10087800AB6F4F0EAA6F000EAA25D96E020EAB21E0
:10088800DA6E000EDF6E000E9B6F000E9A6FB1AF2E
:1008980008D0000E9B6F010E9A6FB06DB11FD8B0D3
:1008A800B12B000E9D6F020E9C6F2BD0AA07D8A00B
:1008B800AB07000EAA25D96E020EAB21DA6EB0C0C6
:1008C80001F0B1C002F0000E046E0A0E036E93EC44
:1008D80025F00150300FDF6EB0C001F0B1C002F05A
:1008E800000E046E0A0E036EA9EC23F001C0B0F0EE
:1008F80002C0B1F000019C07D8A09D079F07D8A0AF
:10090800A007B051B111D8A4D1D79DBF05D09D5132
:10091800CDE19C05D8B0CAD7AA07D8A0AB079A5191
:100928009B11D8A404D0000E8B6F2B0E03D0000EA1
:100938008B6F2D0E8A6F000EAA25D96E020EAB2181
:10094800DA6E8AC0DFFF9F07D8A0A007AA07D8A041
:10095800AB07BF0E776EFF0E786E7650796E7A6AA7
:100968007750792678507A227A5006E11A0E795C07
:10097800D8B002D0010E01D0000E8E6F8F6B8E5151
:100988008F11D8A404D0000E8D6F650E03D0000E11
:100998008D6F450E8C6F000EAA25D96E020EAB2105
:1009A800DA6E8CC0DFFF9F07D8A0A007000EB22523
:1009B800016E020EB321026E000EAA25036E020E0E
:1009C800AB21046E83EC27F070C015F071C016F0EF
:1009D800000E176E020E186E9FC019F0A0C01AF014
:1009E8004FEC21F015C070F016C071F01200BAC0BB
:1009F800D9FFBBC0DAFFDECFF6FFDDCFF7FF080077
:100A0800F550250AD8A4A5D3BAC0D9FFBBC0DAFFD0
:100A1800DE2A000EDD22000E0101856F000E846FB4
:100A280084C188F185C189F186698769000E000152
:100A3800D56F000E19D001018881BAC0D9FFBBC09B
:100A4800DAFFDE2A000EDD2232D001018883F5D7D5
:100A580001018885F2D701018887EFD701018889CC
:100A6800ECD7000ED56F010ED46F21D0BAC0D9FFD4
:100A7800BBC0DAFFDECFF6FFDDCFF7FF0800F55089
:100A8800BE6FBF6BBF51000AD8A4EBD7BE51200A76
:100A9800D8B4E1D7030AD8B4E1D7080AD8B4D8D76C
:100AA800060AD8B4C8D71D0AD8B4CFD7DAD70001F8
:100AB800D451D511D8B4DAD7010188B18893BAC016
:100AC800D9FFBBC0DAFFDECFF6FFDDCFF7FF0800A6
:100AD800F5502A0AD8A423D0BAC0D9FFBBC0DAFF80
:100AE800DE2A000EDD22BCC0D9FFBDC0DAFFDFCF91
:100AF800BEF0020EDE26DFCFBFF0000EDD22BEC044
:100B0800D9FFBFC0DAFFDECF84F1DDCF85F185AF35
:100B180040D08881846D851FD8B0852B3AD0BAC063
:100B2800D9FFBBC0DAFFDECF08F0DDCF09F0E0EC7B
:100B38001BF008C084F109C085F107D0BAC0D9FFFD
:100B4800BBC0DAFFDE2A000EDD22D00E0001BE6F28
:100B5800FF0EBF6FBAC0D9FFBBC0DAFFDECFF6FF0A
:100B6800DDCFF7FF0800F550C06FC16BBE51C0273D
:100B7800BF51C123C15106E10A0EC05DD8B002D0F1
:100B8800010E01D0000ED66FD76BD651D711D8A45D
:100B9800D5D7BAC0D9FFBBC0DAFFDECFF6FFDDCFAD
:100BA800F7FF0800F5502E0AD8A46FD0000E0101F7
:100BB800876F000E866FBAC0D9FFBBC0DAFFDE2A86
:100BC800000EDD22BAC0D9FFBBC0DAFFDECFF6FFC8
:100BD800DDCFF7FF0800F5502A0AD8A41CD0BAC008
:100BE800D9FFBBC0DAFFDE2A000EDD22BCC0D9FF68
:100BF800BDC0DAFFDFCFBEF0020EDE26DFCFBFF0CA
:100C0800000EDD22BEC0D9FFBFC0DAFFDECF86F1FD
:100C1800DDCF87F13AD0BAC0D9FFBBC0DAFFDECF4B
:100C280008F0DDCF09F0E0EC1BF008C086F109C040
:100C380087F107D0BAC0D9FFBBC0DAFFDE2A000EA1
:100C4800DD22D00E0001BE6FFF0EBF6FBAC0D9FF04
:100C5800BBC0DAFFDECFF6FFDDCFF7FF0800F550A7
:100C6800C06FC16BBE51C027BF51C123C15106E13E
:100C78000A0EC05DD8B002D0010E01D0000ED86FA8
:100C8800D96BD851D911D8A4D5D7BAC0D9FFBBC010
:100C9800DAFFDECFF6FFDDCFF7FF0800F550076E6D
:100CA800086AFCEC27F007500001E06FE051D8B467
:100CB80035D0BAC0D9FFBBC0DAFFDECFBEF0DDCF7A
:100CC800BFF0010EBE27000EBF23BEC0F6FFBFC097
:100CD800F7FF0800F550076E086AFCEC27F007508C
:100CE8000001E16FE151D8B419D0BAC0D9FFBBC037
:100CF800DAFFDECFBEF0DDCFBFF0020EBE27000E5A
:100D0800BF23BEC0F6FFBFC0F7FF0800F550076E4F
:100D1800086AFCEC27F007500001E26FBAC0D9FF5F
:100D2800BBC0DAFFDECFF6FFDDCFF7FF0800F550D6
:100D3800630AD8A426D0BAC0D9FFBBC0DAFFDE2A1E
:100D4800000EDD22BCC0D9FFBDC0DAFFDFCFBEF088
:100D5800020EDE26DFCFBFF0000EDD22BEC0D9FFB7
:100D6800BFC0DAFFDF50E36FB8C020F0B9C021F090
:100D7800E3C022F0ADEC27F020C0B8F021C0B9F0F4
:100D88001200BAC0D9FFBBC0DAFFDECFF6FFDDCF55
:100D9800F7FF0800F550640AD8B40DD0BAC0D9FFDF
:100DA800BBC0DAFFDECFF6FFDDCFF7FF0800F55056
:100DB800690AD8A43FD0BAC0D9FFBBC0DAFFDE2A7F
:100DC800000EDD22BCC0D9FFBDC0DAFFDFCFBEF008
:100DD800020EDE26DFCFBFF0000EDD22BEC0D9FF37
:100DE800BFC0DAFFDECFC2F0DDCFC3F0000EC3BF55
:100DF800FF0EC46FC56FC66FC76FC86FC96FB8C025
:100E080020F0B9C021F0C2C022F0C3C023F0C4C092
:100E180024F0C5C025F0C6C026F0C7C027F0C8C05A
:100E280028F0C9C029F09FEC14F020C0B8F021C008
:100E3800B9F01200660EE019D8A43FD0BAC0D9FFA5
:100E4800BBC0DAFFDECFF6FFDDCFF7FF0800F5CF36
:100E5800E3F0BAC0D9FFBBC0DAFFDE2A000EDD22FC
:100E6800BCC0D9FFBDC0DAFFDFCFBEF0040EDE265E
:100E7800DFCFBFF0000EDD22BEC0D9FFBFC0DAFF52
:100E8800DECFDCF0DECFDDF0DECFDEF0DECFDFF070
:100E9800B8C070F0B9C071F0DCC072F0DDC073F09A
:100EA800DEC074F0DFC075F0E3C076F009EC00F046
:100EB80070C0B8F071C0B9F01200E00E016E000EFB
:100EC800026EF90E036EFF0E046E000E066E020E21
:100ED800056EFEEC20F001500210D8A46AD0BAC00A
:100EE800D9FFBBC0DAFFDECFBEF0DDCFBFF0010E09
:100EF8000001BE27000EBF23BEC0F6FFBFC0F7FF2C
:100F08000800F5CFE3F0BF0EBE6FFF0EBF6FBAC08B
:100F1800D9FFBBC0DAFFDECFF6FFDDCFF7FF080051
:100F2800F550C06FC16BBE51C027BF51C123C1511D
:100F380006E11A0EC05DD8B002D0010E01D0000E35
:100F4800DA6FDB6BDA51DB11BCC0D9FFBDC0DAFF49
:100F5800DFCFBEF0040EDE26DFCFBFF0000EDD22AD
:100F6800BEC0D9FFBFC0DAFFDECFDCF0DECFDDF0D8
:100F7800DECFDEF0DECFDFF0020EBAC0D9FFBBC095
:100F8800DAFFDE26000EDD22B8C070F0B9C071F0BD
:100F9800DCC072F0DDC073F0DEC074F0DFC075F045
:100FA800E3C076F009EC00F070C0B8F071C0B9F099
:100FB8001200BAC0D9FFBBC0DAFFDECFF6FFDDCF23
:100FC800F7FF0800F550730AD8A42AD0BAC0D9FF91
:100FD800BBC0DAFFDE2A000EDD22BCC0D9FFBDC0CF
:100FE800DAFFDFCFBEF0020EDE26DFCFBFF0000E45
:100FF800DD22BEC0D9FFBFC0DAFFDECFD2F0DDCF21
:10100800D3F0B8C00EF0B9C00FF0D2C010F0D3C002
:1010180011F09EEC1AF00EC0B8F00FC0B9F0120033
:10102800BAC0D9FFBBC0DAFFDECFF6FFDDCFF7FFCE
:101038000800F550780AD8B40DD0BAC0D9FFBBC0A3
:10104800DAFFDECFF6FFDDCFF7FF0800F550580ACC
:10105800D8A44ED0BAC0D9FFBBC0DAFFDECFF6FFA6
:10106800DDCFF7FF0800F5CFE3F0BAC0D9FFBBC06A
:10107800DAFFDE2A000EDD22BCC0D9FFBDC0DAFFD0
:10108800DFCFBEF0020EDE26DFCFBFF0000EDD227E
:10109800BEC0D9FFBFC0DAFFDECFC0F0DDCFC1F0E0
:1010A800C0C0CAF0C1C0CBF00001CC6BCD6BCE6B19
:1010B800CF6BD06BD16BB8C020F0B9C021F0CAC0DB
:1010C80022F0CBC023F0CCC024F0CDC025F0CEC098
:1010D80026F0CFC027F0D0C028F0D1C029F0E3C057
:1010E8002AF0C3EC15F020C0B8F021C0B9F0120006
:1010F800BAC0D9FFBBC0DAFFDECFF6FFDDCFF7FFFE
:101108000800F550250AD8A417D0BAC0D9FFBBC02B
:10111800DAFFDE2A000EDD22000E066E250E056EB1
:10112800B8C007F0B9C008F0CBEC25F0000E0001FC
:10113800B96F010EB86F1200BAC0D9FFBBC0DAFF91
:10114800DE2A000EDD22000E0001B96F000EB86F16
:101158001200BAC0D9FFBBC0DAFFDECFF6FFDDCF81
:10116800F7FF0800F550056E066AB8C007F0B9C069
:1011780008F0CBEC25F0BAC0D9FFBBC0DAFFDE2AF5
:10118800000EDD22D3D7000E0101BA6F8A86B0ECBB
:101198002AF001C0D2F102C0D3F10101D3BF1BD0A4
:1011A800D35103E1D205D8A016D0D2C107F0D3C1DC
:1011B80008F067EC29F021EEBDF0080EEBCFDBFF5D
:1011C800E806FCE2C0C1C6F1C1C1C7F1C2C1C8F19D
:1011D800C3C1C9F108D0000EC66F000EC76FF00E6C
:1011E800C86FC10EC96F7AC14CF07BC14DF07CC18C
:1011F8004EF07DC14FF0000E506E000E516E800E05
:10120800526E400E536EEFEC0DF04CC0CEF14DC057
:10121800CFF14EC0D0F14FC0D1F106D0000E026E12
:10122800010E016E6CEC24F0CCEC22F01650171075
:10123800D8B407D0F3D7000E026E020E016E6CEC24
:1012480024F0CCEC22F016501710D8B4F4D7000EC6
:101258000001FB6F010EFA6F59EC25F0000E176EB6
:10126800020E166E80EC1CF016C0D6F117C0D7F12E
:10127800000E176E070E166E80EC1CF016C0DAF121
:1012880017C0DBF1000E176E080E166E80EC1CF00E
:101298000101D7BF44D0D75131E1D605D8B02ED0FF
:1012A8003ED0DBBF0DD0D00EDA5D030EDB59D8A0DF
:1012B80007D0000E026E030E016E6CEC24F00ED007
:1012C800DBBF06D0CF0EDA5D030EDB59D8B006D0EF
:1012D800000E026E040E016E6CEC24F0000E176E08
:1012E800070E166E80EC1CF016C0DAF117C0DBF1A1
:1012F800000E176E080E166E80EC1CF00101DBBFA5
:1013080006D0D00EDA5D030EDB59D8B0CAD7DBBFE2
:10131800C8D7CF0EDA5D030EDB59D8A0C2D7000EAE
:10132800026E000E016E6CEC24F0070E0001FF6FD8
:10133800580EFE6F590EE82EFED7FE2FFCD7FF2F52
:10134800FAD700D0000E176E010E166E80EC1CF056
:1013580016C0BBF117C0BCF1000E176E020E166E58
:1013680080EC1CF016C0D6F117C0D7F1000E176E2E
:10137800070E166E80EC1CF0000E176E080E166E27
:1013880080EC1CF016C0CBF117C0CCF10101BCBF3A
:1013980019D0BD0EBB5D020EBC59D8B0D7BF12D054
:1013A800F50ED65D010ED759D8A00CD0CCBF06D00B
:1013B800EE0ECB5D020ECC59D8B004D0000ED96F1A
:1013C800010E03D0000ED96F000ED86FD851D91175
:1013D800D8A407D0000ECD6F000ED56F000ED46FC5
:1013E80091D0D805D911D8A48DD0010ECD6F000E9B
:1013F8000001FB6F050EFA6FE5EC24F0C6C160F042
:10140800C7C161F0C8C162F0C9C163F0CEC15CF068
:10141800CFC15DF0D0C15EF0D1C15FF0B4EC28F06F
:101428005CC064F05DC065F05EC066F05FC067F0E8
:10143800000E686E000E696EF00E6A6E410E6B6EDD
:101448007FEC1FF0D8A059D0000E026E000E016E7E
:101458006CEC24F0010E9FEC2AF0110E0001FE6FD7
:101468003A0EE82EFED7FE2FFCD700F0800E9FEC38
:101478002AF0070E0001FE6F7D0EE82EFED7FE2F24
:10148800FCD76C0E0001EA6FFE0EEB6F37EC2AF00A
:10149800000E0001FB6F070EFA6F1FEC25F0000E1F
:1014A800026E000E016E6CEC24F070EC2AF0010163
:1014B800CA6F0D0E0001FF6FAF0EFE6FB60EE82E5D
:1014C800FED7FE2FFCD7FF2FFAD700F0010E9FECB6
:1014D8002AF0110E0001FE6F3A0EE82EFED7FE2FFD
:1014E800FCD700F00101CA51D8B407D0BAEC2AF0F1
:1014F800010E0101D46F010E04D0000E0101D46F5A
:10150800000ED56FCEC107F0CFC108F0D0C109F0E9
:10151800D1C10AF0D4C10BF0D5C10CF0CD51ABEC60
:101528001EF006D0000E026E010E016E6CEC24F067
:10153800CCEC22F016501710D8A4F4D78A961200D3
:101548003050800B396E305030243F6E2FBE3F80B4
:101558003F50D8B40DD03F28D8A408D0000E2D6E27
:10156800000E2E6E000E2F6E000E306E2F8E08D0DD
:10157800000E2D6E000E2E6E000E2F6E000E306EB9
:101588003450800B391A345034243E6E33BE3E80BA
:101598003E50D8B40DD03E28D8A408D0000E316EE5
:1015A800000E326E000E336E000E346E338E08D08D
:1015B800000E316E000E326E000E336E000E346E69
:1015C8003E50D8B403D03F50D8A409D0000E2D6E99
:1015D800000E2E6E000E2F6E000E306E120033506D
:1015E8002D02F3CF44F0F4CF45F044503A6E3B6AF5
:1015F8003C6A3D6A4550406E416A426A436A3250CD
:101608002E02F3CF44F0F4CF45F044503A26000EB2
:101618003B223C223D2245504026000E41224222D8
:10162800432231502F02F3CF44F0F4CF45F0445019
:101638003A26000E3B223C223D2245504026000E11
:101648004122422243223CC03DF03BC03CF03AC01C
:101658003BF03A6A31502E02F3CF44F0F4CF45F014
:1016680044503A2645503B22000E3C22000E3D22B3
:1016780032502D02F3CF44F0F4CF45F044503A26CF
:1016880045503B22000E3C22000E3D223CC03DF05E
:101698003BC03CF03AC03BF03A6A31502D02F3CFE0
:1016A80044F0F4CF45F044503A2645503B22000E12
:1016B8003C22000E3D2233502E02F3CF44F0F4CFEB
:1016C80045F04450402645504122000E4222000E6B
:1016D800432232502F02F3CF44F0F4CF45F0445068
:1016E800402645504122000E4222000E432233502C
:1016F8002F02F3CF44F0F4CF45F04450356E4550F7
:10170800366E376A386A37C038F036C037F035C0B9
:1017180036F0356A3550402636504122375042223D
:10172800385043223AC035F03BC036F03CC037F061
:101738003DC038F0190E05D0D890383237323632DD
:101748003532E82EF9D735504026365041223750E9
:101758004222385043223CC03DF03BC03CF03AC0E6
:101768003BF03A6A3E503FC035F0366A3526000EE7
:101778003622820E3524446EFF0E3620456E0FD079
:10178800D89040364136423643363DBE4080D890E8
:101798003A363B363C363D364406D8A0450642AE7E
:1017A800EFD7000E3E6E3DAE17D0FF0E3A14356EE1
:1017B800FF0E3B14366EFF0E3C14376E7F0E3D1441
:1017C800386E3550361037103810D8B403D0010EA3
:1017D8003E6E02D040B0FBD73E50D8B41FD0010EA9
:1017E8004026000E41224222432243A017D040C087
:1017F80035F041C036F042C037F043C038F03834D5
:10180800383237323632353235C040F036C041F0E2
:1018180037C042F038C043F0444A452A45BE0DD08F
:10182800455003E14428D8A008D0000E406E000EB1
:10183800416E800E426E7F0E20D045BE05D04550C9
:101848000EE14404D8B00BD0000E406E000E416E7D
:10185800000E426E000E436E000E396E0FD044C06B
:101868003FF0FF0E4016FF0E41167F0E4216000E87
:1018780043163FB0428ED8903F30436E39504312E2
:1018880040C02DF041C02EF042C02FF043C030F0D0
:1018980012008A868EC107F08FC108F067EC29F024
:1018A80021EED4F0080EEBCFDBFFE806FCE20101E5
:1018B8008FBF1ED08F5104E1020E8E5DD8A018D0C4
:1018C800FF0E8E25076EFF0E8F21086E67EC29F03C
:1018D80021EEBCF0080EEBCFDBFFE806FCE2BFC14F
:1018E800C5F1C0C1C6F1C1C1C7F1C2C1C8F108D0B4
:1018F800000EC56F000EC66F480EC76FC20EC86FC8
:10190800D7C1B6F1D8C1B7F1D9C1B8F1DAC1B9F1C7
:1019180006D0000E026E010E016E6CEC24F0CCECC9
:1019280022F016501710D8B407D0F3D7000E026E65
:10193800020E016E6CEC24F0CCEC22F0165017105D
:10194800D8B4F4D7000E0001FB6F010EFA6F59EC02
:1019580025F0000E176E020E166E80EC1CF016C0F5
:10196800CCF117C0CDF1000E176E070E166E80EC85
:101978001CF016C0D2F117C0D3F1000E176E080E76
:10198800166E80EC1CF00101CDBF44D0CD5131E181
:10199800CC05D8B02ED03ED0D3BF0DD0D00ED25D5E
:1019A800030ED359D8A007D0000E026E030E016EA5
:1019B8006CEC24F00ED0D3BF06D0CF0ED25D030E50
:1019C800D359D8B006D0000E026E040E016E6CEC2E
:1019D80024F0000E176E070E166E80EC1CF016C071
:1019E800D2F117C0D3F1000E176E080E166E80ECF8
:1019F8001CF00101D3BF06D0D00ED25D030ED3591F
:101A0800D8B0CAD7D3BFC8D7CF0ED25D030ED3592B
:101A1800D8A0C2D7000E026E000E016E6CEC24F046
:101A2800070E0001FF6F580EFE6F590EE82EFED705
:101A3800FE2FFCD7FF2FFAD700D0000E176E010E2D
:101A4800166E80EC1CF016C0BAF117C0BBF1000E80
:101A5800176E020E166E80EC1CF016C0CCF117C083
:101A6800CDF1000E176E070E166E80EC1CF0000EFE
:101A7800176E080E166E80EC1CF016C0CAF117C05F
:101A8800CBF10101BBBF19D0BD0EBA5D020EBB5927
:101A9800D8B0CDBF12D0F50ECC5D010ECD59D8A06F
:101AA8000CD0CBBF06D0EE0ECA5D020ECB59D8B013
:101AB80004D0000ECF6F010E03D0000ECF6F000EC2
:101AC800CE6FCE51CF11D8A40AD0D651D8A402D007
:101AD800010E61D0DBC1D0F1DCC1D1F15FD0CE0500
:101AE800CF11D8A45BD0000E0001FB6F050EFA6F72
:101AF800E5EC24F0C5C160F0C6C161F0C7C162F071
:101B0800C8C163F0B6C15CF0B7C15DF0B8C15EF0A2
:101B1800B9C15FF0B4EC28F05CC064F05DC065F05A
:101B28005EC066F05FC067F0000E686E000E696EFA
:101B3800F00E6A6E410E6B6E7FEC1FF0D8A029D0B4
:101B4800000E0001FB6F070EFA6F1FEC25F0000E68
:101B5800026E000E016E6CEC24F070EC2AF00101AC
:101B6800C96F0D0E0001FF6FAF0EFE6FB60EE82EA7
:101B7800FED7FE2FFCD7FF2FFAD700F00101C9517D
:101B8800D8B407D0BAEC2AF0010E0101D06F010ECB
:101B980004D0000E0101D06F000ED16F8EC107F086
:101BA8008FC108F0D0C109F0D1C10AF022EC28F0A9
:101BB80001018E07D8A08F0706D0000E026E010E15
:101BC800016E6CEC24F0CCEC22F016501710D8A45F
:101BD800F4D78A9612004F50800B586E4F504F24FE
:101BE8005A6E4EBE5A805A50D8B40DD05A28D8A42E
:101BF80008D0000E4C6E000E4D6E000E4E6E000E9C
:101C08004F6E4E8E06D0000E4C6E000E4D6E000EBE
:101C18004E6E000E4F6E5350800B596E5850591827
:101C2800D8A4588C53505324596E52BE59805950D9
:101C3800D8B40DD05928D8A408D0000E506E000E84
:101C4800516E000E526E000E536E528E06D0000E6C
:101C5800506E000E516E000E526E000E536E5A50AA
:101C6800595CD8B022D058AC02D0800E581A5AC04D
:101C78005BF059C05AF05BC059F04CC05BF050C0E3
:101C88004CF05BC050F04DC05BF051C04DF05BC0F4
:101C980051F04EC05BF052C04EF05BC052F04FC0E6
:101CA8005BF053C04FF05BC053F0000E5B6E5A50B0
:101CB80059C054F0556A545E000E555A55BE2CD082
:101CC800555004E11A0E545CD8A026D04C504D1043
:101CD8004E104F10D8B402D0010E01D0000E5B6E2A
:101CE800000E4C6E000E4D6E000E4E6E000E4F6EC6
:101CF80059C05AF015D05BA005D0D8905B300109C7
:101D08005B6E02D0D8905B324CB05B8E4F344F3252
:101D18004E324D324C325A2A59505A5CD8A0EBD721
:101D280058BC28D05A50D8A409D0000E4C6E000ECA
:101D38004D6E000E4E6E000E4F6E120050504C2627
:101D480051504D2252504E2253504F224FA071D025
:101D58005BA005D0D8905B3001095B6E02D0D890AB
:101D68005B324CB05B8E4F344F324E324D324C3278
:101D78005A2A5FD050504C5C51504D5852504E58D2
:101D88004F50800A546E5350800A5458D8B025D00A
:101D98004C50505C546E4D505158556E4E505258E0
:101DA800566E4F505358576EFF0E54244C6EFF0E0C
:101DB80055204D6EFF0E56204E6EFF0E57204F6E6B
:101DC800800E581A5B6C5B50D8A40FD0010E4C26BD
:101DD800000E4D224E224F2208D050504C5E5150DA
:101DE8004D5A52504E5A53504F5A4C504D104E1057
:101DF8004F10D8A41CD05B50D8A419D0000E4C6E3C
:101E0800000E4D6E000E4E6E000E4F6E1200D890F2
:101E18004C364D364E364F365BBE4C805BA002D0FA
:101E2800D88001D0D8905B365A50D8A45A064EAE06
:101E3800EED7000E596E5BAE0BD05BC054F07F0E30
:101E48005416D8B403D0010E596E02D04CB0FBD74B
:101E58005950D8B420D0010E4C26000E4D224E22E7
:101E68004F224FA018D04CC054F04DC055F04EC072
:101E780056F04FC057F05734573256325532543215
:101E880054C04CF055C04DF056C04EF057C04FF0FE
:101E98005A28D8A45A2A5A28D8B403D05A50D8A4B1
:101EA8000DD0000E4C6E000E4D6E000E4E6E000EE4
:101EB8004F6E5A50D8A402D0000E586E5AA002D0C5
:101EC8004E8E01D04E9ED8905A304F6E58BE4F8ECF
:101ED8004CC04CF04DC04DF04EC04EF04FC04FF0CE
:101EE800120034EC22F016C0E1F117C0E2F1E8EC80
:101EF80021F016C0DFF117C0E0F156EC27F046C01C
:101F08005CF047C05DF048C05EF049C05FF07EC13C
:101F180060F07FC161F080C162F081C163F0B4EC10
:101F280028F05CC0E3F15DC0E4F15EC0E5F15FC09C
:101F3800E6F1E3C1E7F1E4C1E8F1E5C1E9F1E6C1A1
:101F4800EAF113D1000E026E010E016E6CEC24F062
:101F580056EC27F046C05CF047C05DF048C05EF024
:101F680049C05FF07EC160F07FC161F080C162F05E
:101F780081C163F0B4EC28F05CC0E7F15DC0E8F122
:101F88005EC0E9F15FC0EAF1010E9FEC2AF0110E84
:101F98000101DC6F3A0EE82EFED7DC2FFCD700F0EB
:101FA800800E9FEC2AF0070E0101DC6F7D0EE82EF3
:101FB800FED7DC2FFCD7780E0001EA6FFF0EEB6F1F
:101FC800E7C1ECF0E8C1EDF0E9C1EEF0EAC1EFF0ED
:101FD80037EC2AF0CCEC22F016501710D8B470D099
:101FE80056EC27F046C05CF047C05DF048C05EF094
:101FF80049C05FF07EC160F07FC161F080C162F0CE
:1020080081C163F0B4EC28F05CC07AF15DC07BF16B
:102018005EC07CF15FC07DF17EC15CF07FC15DF088
:1020280080C15EF081C15FF056EC27F046C060F0D9
:1020380047C061F048C062F049C063F0B4EC28F0D2
:102048005CC07EF15DC07FF15EC080F15FC081F150
:10205800C7EC08F07EC14CF07FC14DF080C14EF056
:1020680081C14FF056EC27F046C050F047C051F000
:1020780048C052F049C053F0EFEC0DF04CC07EF16F
:102088004DC07FF14EC080F14FC081F17EC15CF040
:102098007FC15DF080C15EF081C15FF0000E606EAF
:1020A800000E616E500E626E410E636EB4EC28F045
:1020B8005CC07EF15DC07FF15EC080F15FC081F1E0
:1020C80018EC23F016501710D8A406D09CEC21F079
:1020D80016501710D8B43AD07EC15CF07FC15DF0BD
:1020E80080C15EF081C15FF056EC27F046C060F019
:1020F80047C061F048C062F049C063F0B4EC28F012
:102108005CC07EF15DC07FF15EC080F15FC081F18F
:1021180047EC28F07EC14CF07FC14DF080C14EF0F5
:1021280081C14FF056EC27F046C050F047C051F03F
:1021380048C052F049C053F0EFEC0DF04CC07EF1AE
:102148004DC07FF14EC080F14FC081F1AAEC20F064
:1021580016041710D8A409D0000E026E000E016EE6
:102168006CEC24F0D59E73EC13F0000E646E800EB8
:10217800656ECF0E666E430E676EE3C160F0E4C114
:1021880061F0E5C162F0E6C163F0E7C15CF0E8C167
:102198005DF0E9C15EF0EAC15FF0B4EC28F05CC024
:1021A80068F05DC069F05EC06AF05FC06BF07FECFC
:1021B8001FF0D8A01200C6D634EC22F016C0E2F107
:1021C80017C0E3F1E8EC21F016C0E0F117C0E1F127
:1021D80056EC27F046C05CF047C05DF048C05EF0A2
:1021E80049C05FF07EC160F07FC161F080C162F0DC
:1021F80081C163F0B4EC28F05CC0E4F15DC0E5F1A6
:102208005EC0E6F15FC0E7F1E4C1E8F1E5C1E9F1DC
:10221800E6C1EAF1E7C1EBF1F7D0000E026E010E5C
:10222800016E6CEC24F056EC27F046C05CF047C019
:102238005DF048C05EF049C05FF07EC160F07FC1CC
:1022480061F080C162F081C163F0B4EC28F05CC039
:10225800E8F15DC0E9F15EC0EAF15FC0EBF1010EA3
:102268009FEC2AF0110E0101DD6F3A0EE82EFED721
:10227800DD2FFCD700F0800E9FEC2AF0070E01013D
:10228800DD6F7D0EE82EFED7DD2FFCD7780E00011E
:10229800EA6FFF0EEB6FE8C1ECF0E9C1EDF0EAC1BF
:1022A800EEF0EBC1EFF037EC2AF0CCEC22F0165050
:1022B8001710D8B454D07EC15CF07FC15DF080C1E6
:1022C8005EF081C15FF056EC27F046C060F047C071
:1022D80061F048C062F049C063F0B4EC28F05CC01B
:1022E8007EF15DC07FF15EC080F15FC081F14DEC91
:1022F8000CF07EC14CF07FC14DF080C14EF081C121
:102308004FF056EC27F046C050F047C051F048C097
:1023180052F049C053F0EFEC0DF04CC07EF14DC0C7
:102328007FF14EC080F14FC081F17EC15CF07FC16A
:102338005DF080C15EF081C15FF0000E606E000E3E
:10234800616E500E626E410E636EB4EC28F05CC094
:102358007EF15DC07FF15EC080F15FC081F118EC55
:1023680023F016501710D8A406D09CEC21F0165074
:102378001710D8B43AD07EC15CF07FC15DF080C13F
:102388005EF081C15FF056EC27F046C060F047C0B0
:1023980061F048C062F049C063F0B4EC28F05CC05A
:1023A8007EF15DC07FF15EC080F15FC081F147ECD6
:1023B80028F07EC14CF07FC14DF080C14EF081C144
:1023C8004FF056EC27F046C050F047C051F048C0D7
:1023D80052F049C053F0EFEC0DF04CC07EF14DC007
:1023E8007FF14EC080F14FC081F1AAEC20F01604B5
:1023F8001710D8A409D0000E026E000E016E6CEC06
:1024080024F0D59E73EC13F0000E646E000E656E1A
:10241800D70E666E430E676EE4C160F0E5C161F0E9
:10242800E6C162F0E7C163F0E8C15CF0E9C15DF0C4
:10243800EAC15EF0EBC15FF0B4EC28F05CC068F074
:102448005DC069F05EC06AF05FC06BF07FEC1FF0A2
:10245800D8A01200E2D60450800B116E0450042458
:10246800186E03BE18801850D8B40DD01828D8A4F8
:1024780008D0000E016E000E026E000E036E000EF4
:10248800046E038E06D0000E016E000E026E000E62
:10249800036E000E046E0850800B111A08500824B1
:1024A800196E07BE19801950D8B40DD01928D8A4B0
:1024B80008D0000E056E000E066E000E076E000EA8
:1024C800086E078E06D0000E056E000E066E000E12
:1024D800076E000E086E0550061007100810D8A4E5
:1024E80017D0000E016E000E026E000E036E000E75
:1024F800046E800E03127F0E04121150041201C0E4
:1025080001F002C002F003C003F004C004F012009E
:102518001850D8A409D0000E016E000E026E000EED
:10252800036E000E046E1200195018C009F00A6AF2
:10253800095E000E0A5A7F0E0924126E000E0A2048
:10254800136E01C00DF002C00EF003C00FF004C0FE
:1025580010F0000E016E000E026E000E036E000EEB
:10256800046E000E146E000E156E000E166E000E30
:10257800176E000E196E28D01950D8B411D0D89003
:102588000D360E360F361036D89001360236033621
:10259800043617BE0180D89014361536163617360D
:1025A80005500D5C06500E5807500F58085010582B
:1025B800D8A009D0178C05500D5E06500E5A07504A
:1025C8000F5A0850105A192A190E1964D5D70D50E8
:1025D8000E100F101010D8B411D014800FD0D8904E
:1025E800013602360336043617BE0180D8901436F9
:1025F8001536163617361206D8A0130603AEEFD7CF
:10260800000E196E17AE17D0FF0E1414096EFF0EC8
:1026180015140A6EFF0E16140B6E7F0E17140C6E2F
:1026280009500A100B100C10D8B403D0010E196E03
:1026380002D001B0FBD71950D8B41FD0010E012623
:10264800000E02220322042204A017D001C009F0C0
:1026580002C00AF003C00BF004C00CF00C340C32BA
:102668000B320A32093209C001F00AC002F00BC06D
:1026780003F00CC004F0124A132A13BE10D01350F2
:1026880003E11228D8A00BD0000E136E1268000EBA
:10269800016E000E026E000E036E000E046E13BE75
:1026A80005D0135011E11204D8B00ED0000E136EED
:1026B800000E126E000E016E000E026E000E036E0A
:1026C800000E046E000E116E12C018F018A002D091
:1026D800038E01D0039ED8901830046E0ED7000EDA
:1026E8000101C76F000EC66F010EC56FCE50ABEC6F
:1026F8002AF001C0C1F102C0C2F1B0EC2AF001C059
:10270800C3F102C0C4F1000E8C6E000E956E0F0E60
:10271800C16E938E938C938A9388F28EF086F28E94
:1027280001EC26F036EC26F001019251D8B4E3D042
:10273800000E926F010E9FEC2AF0110E0001FA6F45
:102748003A0EE82EFED7FA2FFCD700F083D0010E00
:1027580001012FD00C0E01019119D8A402D0000E4E
:1027680028D09151D8A402D0020E23D09105D8A424
:1027780002D0030E1ED0020E9119D8A402D0040E66
:1027880018D0040E9119D8A4B6D0050E12D00C0E8C
:1027980001019119D8B4DBD7AED00C0E0101911903
:1027A800D8B4D5D79151D8A406D0000EC66F010E63
:1027B80048D0C76FA0D09105D8A404D0000EC66F2A
:1027C800020E3FD0020E9119D8A404D0000EC66F95
:1027D800030E37D0040E9119D8A404D0000EC66F8A
:1027E800040E2FD0050E9119D8A404D0000EC66F80
:1027F800050E27D0060E9119D8A404D0000EC66F76
:10280800060E1FD0080E9119D8A404D0000EC66F6A
:10281800070E17D0090E9119D8A404D0000EC66F60
:10282800080E0FD00A0E9119D8A404D0000EC66F56
:10283800090E07D00D0E9119D8A45DD0000EC66FF1
:102848000A0EC56F060EB5D70C0E01019119D8B442
:102858009CD751D00101C7510001FA6FFB6BFB51A6
:10286800000AD8A448D0FA51000AD8B470D7010A8F
:10287800D8B470D7030AD8B48AD7010AD8B487D78E
:10288800070AD8B484D7010AD8B487D7030AD8B4BA
:10289800DBD731D06AEC26F047D72CEC24F044D7AC
:1028A800C1C1F6F0C2C1F7F0DEEC29F03DD7C3C1D3
:1028B800F6F0C4C1F7F0C7EC29F036D7D5EC27F00D
:1028C80033D7C5C1F6F0C6C1F7F0A8EC1DF02CD778
:1028D800800E9FEC2AF0070E0001FA6F7D0EE82E9D
:1028E800FED7FA2FFCD7CE0E0001EA6FFF0EEB6F72
:1028F80037EC2AF019D70101C7510001FA6FFB6BB9
:10290800FB51000AD8A4E4D7FA51000AD8B40AD770
:10291800010AD8B4BFD7030AD8B4BFD7010AD8B4BC
:10292800BFD7070AD8B4C3D7010AD8B4C7D7030A90
:10293800D8B4C7D7CDD722C03AF023C03BF024C0C3
:102948003CF025C03DF026C03EF027C03FF028C02F
:1029580040F029C041F041AE02D0010E01D0000E76
:10296800386E396A38503910D8B410D0411E401E1C
:102978003F1E3E1E3D1E3C1E3B1E3A6C000E3B2277
:102988003C223D223E223F2240224122010187AFC4
:10299800889387BF05D0875108E18605D8B005D050
:1029A800000E356E010E346E04D086C134F087C136
:1029B80035F084C136F085C137F038503910D8A4C5
:1029C80002D088A503D03606D8A03706000E436E7D
:1029D8004F0E426E000E02014F6F7CD04206D8A007
:1029E8004306000E4224D96E020E4320DA6E3AC026
:1029F80001F03BC002F03CC003F03DC004F03EC013
:102A080005F03FC006F040C007F041C008F00A0ECC
:102A1800096E000E0A6E000E0B6E000E0C6E000E94
:102A28000D6E000E0E6E000E0F6E000E106E16EC80
:102A38001DF001C02AF002C02BF003C02CF004C026
:102A48002DF005C02EF006C02FF007C030F008C0EA
:102A580031F02AC013F02CC014F04EEC29F01350BA
:102A6800300FDF6E3406D8A035063606D8A03706F4
:102A78003AC001F03BC002F03CC003F03DC004F096
:102A88003EC005F03FC006F040C007F041C008F066
:102A98000A0E096E000E0A6E000E0B6E000E0C6E0A
:102AA800000E0D6E000E0E6E000E0F6E000E106EF4
:102AB800FAEC19F001C03AF002C03BF003C03CF058
:102AC80004C03DF005C03EF006C03FF007C040F02E
:102AD80008C041F043BE20D0435003E14204D8A0CF
:102AE8001BD03A503B103C103D103E103F10401098
:102AF8004110D8A473D735BE05D0355002E134044F
:102B0800D8B06CD737BE08D0375003E13604D8A008
:102B180003D0010188B362D738503910D8A403D044
:102B2800010188A517D04206D8A0430638503910AD
:102B3800D8A404D0000E336E2B0E03D0000E336ED3
:102B48002D0E326E000E4224D96E020E4320DA6E2C
:102B580032C0DFFF20C015F021C016F0000E42245D
:102B6800176E020E4320186E36C019F037C01AF0DF
:102B78004FEC21F015C020F016C021F01200010121
:102B880087AF889387BF05D0875108E18605D8B0FD
:102B980005D0000E386E010E376E04D086C137F0AE
:102BA80087C138F084C139F085C13AF088A904D0CA
:102BB800FE0E3926FF0E3A2222C03BF023C03CF01D
:102BC80024C03DF025C03EF026C03FF027C040F0AD
:102BD80028C041F029C042F0000E446E4F0E436EEB
:102BE800000E02014F6F93D04306D8A044060F0E83
:102BF8003B14456E466A46BE08D0465004E10A0EAC
:102C0800455CD8A002D0570E01D0300E4524456E41
:102C1800000E4620466EBF0E2B6EFF0E2C6E2A50FD
:102C28002D6E2E6A2B502D262C502E222E5006E16A
:102C38001A0E2D5CD8B002D0010E01D0000E336EF2
:102C4800346A33503410D8B427D09F0E2B6EFF0E41
:102C58002C6E200E45102D6E000E46102E6E2B5039
:102C68002D262C502E222E5006E11A0E2D5CD8B09F
:102C780002D0010E01D0000E356E366A355036107E
:102C8800D8B40AD045C007F046C008F06CEC28F06C
:102C980007C045F008C046F0000E4324D96E020E66
:102CA8004420DA6E45C0DFFF3706D8A0380639065B
:102CB800D8A03A063BC02BF03CC02CF03DC02DF00C
:102CC8003EC02EF03FC02FF040C030F041C031F080
:102CD80042C032F0050E09D0D8903232313230324B
:102CE8002F322E322D322C322B32E82EF5D72BC034
:102CF8003BF02CC03CF02DC03DF02EC03EF02FC064
:102D08003FF030C040F031C041F032C042F044BE24
:102D180021D0445004E1020E435CD8A01BD03B50A4
:102D28003C103D103E103F10401041104210D8A4F6
:102D38005BD738BE05D0385002E13704D8B054D735
:102D48003ABE08D03A5003E13904D8A003D00101B3
:102D580088B34AD7010188A916D04306D8A04406EB
:102D6800000E4324D96E020E4420DA6E2AC0DFFF1B
:102D78004306D8A04406000E4324D96E020E442010
:102D8800DA6E300EDF6E20C015F021C016F0000E8E
:102D98004324176E020E4420186E39C019F03AC049
:102DA8001AF04FEC21F015C020F016C021F01200E7
:102DB8005AC12AF05BC12BF05CC12CF05DC12DF02B
:102DC8001AC02AF01BC02BF01CC02CF01DC02DF01F
:102DD800810E1E6EFF0E1F6E2AC020F02BC021F040
:102DE8002CC022F02DC023F0180E05D0D890233225
:102DF800223221322032E82EF9D720501E24286EA4
:102E0800000E1F20296E29BE0FD0295004E1170E8D
:102E1800285CD8A009D01AC01AF01BC01BF01CC02F
:102E28001CF01DC01DF0120029BE5ED028C01EF087
:102E3800FF0E1F6EFF0E206E7F0E216E000E226E9B
:102E48001E6601D007D022342232213220321F32AE
:102E58001E2EF6D71FC024F020C025F021C026F072
:102E680022C027F024502A141E6E25502B141F6EE2
:102E780026502C14206E27502D14216E1E501F1022
:102E880020102110D8B4C7D72AC01EF02BC01FF0BD
:102E98002CC020F02DC021F0200E05D0D890213272
:102EA80020321F321E32E82EF9D71E501F10201074
:102EB8002110D8B408D024502A2625502B22265079
:102EC8002C2227502D22241C1E6E251C1F6E261C0A
:102ED800206E271C216E1E502A161F502B162050BC
:102EE8002C1621502D1636D02AC01EF02BC01FF0EC
:102EF8002CC020F02DC021F0200E05D0D890213212
:102F080020321F321E32E82EF9D71E501F10201013
:102F18002110D8A408D0000E2A6E000E2B6E000EC9
:102F28002C6E000E16D0D8902A341E6E2B341F6ECD
:102F38002C34206E2D34216E1E501F1020102110AD
:102F4800D8B408D0000E2A6E000E2B6E800E2C6EA0
:102F5800BF0E2D6E2AC01AF02BC01BF02CC01CF01F
:102F68002DC01DF01200949AFAEC26F046C070F0BD
:102F780047C071F048C072F049C073F007D08B8A1F
:102F880080EC22F016041710D8B42ED080EC22F072
:102F980016501710D8A428D070C060F071C061F026
:102FA80072C062F073C063F0FAEC26F046C05CF0C1
:102FB80047C05DF048C05EF049C05FF0B4EC28F04F
:102FC8005CC064F05DC065F05EC066F05FC067F02D
:102FD8009A0E686E990E696E190E6A6E3F0E6B6EC8
:102FE8007FEC1FF0D8A0CBD79A0E646E990E656E51
:102FF800190E666E3F0E676E70C060F071C061F0AA
:1030080072C062F073C063F0FAEC26F046C05CF060
:1030180047C05DF048C05EF049C05FF0B4EC28F0EE
:103028005CC068F05DC069F05EC06AF05FC06BF0BC
:103038007FEC1FF0D8B003D08B9A000E1200FAEC88
:1030480026F046C070F047C071F048C072F049C021
:1030580073F001D08B8A80EC22F016501710D8B488
:1030680028D070C060F071C061F072C062F073C0A7
:1030780063F0FAEC26F046C05CF047C05DF048C04B
:103088005EF049C05FF0B4EC28F05CC064F05DC04D
:1030980065F05EC066F05FC067F09A0E686E990EC4
:1030A800696E190E6A6E3F0E6B6E7FEC1FF0D8A02A
:1030B800D1D79A0E646E990E656E190E666E3F0E24
:1030C800676E70C060F071C061F072C062F073C06A
:1030D80063F0FAEC26F046C05CF047C05DF048C0EB
:1030E8005EF049C05FF0B4EC28F05CC068F05DC0E9
:1030F80069F05EC06AF05FC06BF07FEC1FF0D8A08B
:103108009BD78B9A010E1200000E0101F16F000E81
:10311800EF6F000EEE6F949A8B9A93968A9631EC25
:103128001EF0D59ED59CD59AD598D586000ED66E1C
:10313800000ED76EF28A000E026E000E016E6CEC65
:1031480024F0000E176E010E166E80EC1CF016C0EF
:103158001FF017C020F0000E20BEFF0E216E226E59
:10316800010E40EC1BF01FC072F120C073F121C0AA
:1031780074F122C075F1000E176E020E166E80EC07
:103188001CF016C01FF017C020F0000E20BEFF0E66
:10319800216E226E010E40EC1BF01FC06EF120C0A4
:1031A8006FF121C070F122C071F1000E176E070E89
:1031B800166E80EC1CF016C01FF017C020F0000E31
:1031C80020BEFF0E216E226E010E40EC1BF01FC0C8
:1031D8006AF120C06BF121C06CF122C06DF1000EC4
:1031E800176E080E166E80EC1CF016C01FF017C084
:1031F80020F0000E20BEFF0E216E226E010E40EC64
:103208001BF01FC066F120C067F121C068F122C021
:1032180069F147EC19F0D58E1A0E0101ED6F5E0EBB
:10322800EC6F6E0EE82EFED7EC2FFCD7ED2FFAD7F9
:1032380000F075EC0FF0000E0001FB6F150EFA6F31
:10324800ABEC24F0000E0001FB6F300EFA6F1FECA0
:1032580025F0000E0001FB6F150EFA6FABEC24F0A1
:10326800B0EC2AF001C08EF102C08FF1E0EC10F052
:10327800000E026E000E016E6CEC24F0D59E73EC0D
:1032880013F007EF00F0000E8C6E000E956E0F0E17
:10329800C16E938E938C938A9388F28EF086F28E09
:1032A800A00E0E6E860E0F6E010E106E000E116EC1
:1032B80028EC27F001EC26F0C2EC2AF0000E036E91
:1032C800D00E026EB5EC2AF0000E036E000E026EF0
:1032D800B5EC2AF0BEEC2AF0C2EC2AF0000E036E20
:1032E800D10E026EB5EC2AF0000E0001FF6FF80E49
:1032F800FF25D96EDA6A000EDA22000E5EEC2AF09B
:10330800DF6E0001FF2B050EFF65F1D7010E5EECA5
:103318002AF00001FE6FBEEC2AF0800E9FEC2AF026
:10332800070E0001F66F7D0EE82EFED7F62FFCD7AC
:10333800F10E0001EA6FFE0EEB6F37EC2AF0C00EBB
:103348009FEC2AF0C50E0001EA6FFF0EEB6F37EC19
:103358002AF0900E9FEC2AF0A90E0001EA6FFE0EEB
:10336800EB6FFEC0ECF0ED6BFDC0EEF0EF6BFCC058
:10337800F0F0F16B37EC2AF0D00E9FEC2AF0B80E83
:103388000001EA6FFE0EEB6FFAC0ECF0ED6BF9C0CE
:10339800EEF0EF6BF8C0F0F0F16B37EC2AF0070EA7
:1033A8000001F76F580EF66F590EE82EFED7F62F6C
:1033B800FCD7F72FFAD700D001019251D8A406D034
:1033C800AAEC20F016041710D8A476D7000E010135
:1033D800926F010E9FEC2AF0110E0001F66F3A0E63
:1033E800E82EFED7F62FFCD700F01200000E126E62
:1033F80010AE12D0101E0F1E0E1E0D1E0C1E0B1E20
:103408000A1E096C000E0A220B220C220D220E2223
:103418000F221022010E126E08AE12D0081E071ECF
:10342800061E051E041E031E021E016C000E02224B
:10343800032204220522062207220822010E121A5C
:1034480020EE13F0070EDE6AE806FDE209500A10C6
:103458000B100C100D100E100F101010D8B446D011
:10346800010E116E0AD0D89009360A360B360C3682
:103478000D360E360F361036112A10AEF4D7D89006
:1034880013361436153616361736183619361A36D0
:103498000950015C0A5002580B5003580C5004584C
:1034A8000D5005580E5006580F5007581050085820
:1034B800D8A011D00950015E0A50025A0B50035A85
:1034C8000C50045A0D50055A0E50065A0F50075A00
:1034D8001050085A1380D89010320F320E320D3225
:1034E8000C320B320A320932112EC9D71250D8B415
:1034F80010D01A1E191E181E171E161E151E141E71
:10350800136C000E142215221622172218221922D3
:103518001A2213C001F014C002F015C003F016C03F
:1035280004F017C005F018C006F019C007F01AC05B
:1035380008F0120021EEF2F010EE13F0060EDBCFC9
:10354800E3FFE806FCE210C01EF011C01FF01E5099
:103558001F10D8A404D0130E1E6E000E1F6E1EC0BE
:1035680001F01FC002F0D7EC28F001C022F002C021
:1035780023F086C120F087C121F021BE0ED0225051
:10358800205C2150800A126E2350800A1258D8B04D
:1035980004D020C022F021C023F022C020F023C094
:1035A80021F084C11CF085C11DF0010188A10DD056
:1035B80016D0000E066E200E056E0EC007F00FC066
:1035C80008F0CBEC25F0224A232A1C50225C235019
:1035D800800A126E1D50800A1258D8A0EAD7000E31
:1035E8001B6E000E1A6E1FD01EC0F6FF1FC0F7FF1D
:1035F800000EF86E0F0EF76403D00800F55005D0E2
:10360800F6CFE9FFF7CFEAFFEF50126E1250056EC2
:10361800066A0EC007F00FC008F0CBEC25F01E4A72
:103628001F2A1A4A1B2A20501A5C1B50800A126E45
:103638002150800A1258D8A0D7D7010188B10DD0DF
:1036480016D0000E066E200E056E0EC007F00FC0D5
:1036580008F0CBEC25F0224A232A1C50225C235088
:10366800800A126E1D50800A1258D8A0EAD722C0CC
:103678000EF023C00FF01200276E2750D8A422AEF8
:103688001AD01FC023F020C024F021C025F022C08A
:1036980026F0231E241E251E261E232A000E242261
:1036A8002522262223C029F024C02AF025C02BF089
:1036B80026C02CF008D01FC029F020C02AF021C055
:1036C8002BF022C02CF01F50201021102210D8A45B
:1036D80009D0000E1F6E000E206E000E216E000E27
:1036E800226E1200960E286E06D0282AD8902C3208
:1036F8002B322A322932000E2914236E000E2A1486
:10370800246E000E2B14256EFE0E2C14266E2350EC
:10371800241025102610D8B40DD0E7D7282A010E7A
:103728002926000E2A222B222C22D8902C322B322A
:103738002A322932000E2914236E000E2A14246E10
:10374800000E2B14256EFF0E2C14266E2350241009
:1037580025102610D8B407D0E1D72806D8902936E6
:103768002A362B362C362BBE03D0020E2860F5D70E
:1037780028A02B9ED890283228C023F0246A256AD6
:10378800266A23C026F0256A246A236A2350291250
:1037980024502A1225502B1226502C122750D8A418
:1037A80022AE01D02C8E29C01FF02AC020F02BC0D9
:1037B80021F02CC022F01200000E166E000E156EBD
:1037C800000E0F6E000E0E6E02D0084A092A010E76
:1037D800146E08C0F6FF09C0F7FF0800F550200A6C
:1037E800D8B418D0F70E0A6EFF0E0B6E08C0F6FF9D
:1037F80009C0F7FF0800F5500C6E0D6A0A500C2638
:103808000B500D220D5004E1050E0C5CD8A002D01F
:10381800000E146E14C010F0116A10501110D8B4B4
:1038280008D0D3D7000E0F6E010E0E6E084A092A73
:103838002ED008C0F6FF09C0F7FF0800F5500A6E41
:103848000B6A0B50000AD8A422D00A502B0AD8B40D
:10385800EDD7060AD8B4E6D71AD015C001F016C0BD
:1038680002F0000E046E0A0E036E4BEC2AF008C03C
:10387800F6FF09C0F7FF0800F550015E000E025A76
:10388800300E0124156E000E0220166ECFD7D00E12
:103898000A6EFF0E0B6E08C0F6FF09C0F7FF08009E
:1038A800F5500C6E0D6A0A500C260B500D220D5067
:1038B80006E10A0E0C5CD8B002D0010E01D0000E51
:1038C800126E136A12501310D8A4C7D70E500F10D7
:1038D800D8A40DD015C00AF016C00BF00A1E0B1E96
:1038E8000A4A0B2A0AC008F00BC009F0120015C0DA
:1038F80008F016C009F01200A00E0E6E860E0F6EAC
:10390800010E106E000E116E28EC27F01604171029
:10391800D8A411D0C2EC2AF0000E036E100E026E6D
:10392800B5EC2AF0000E036E010E026EB5EC2AF01B
:10393800BEEC2AF045D0020E16181710D8A411D0E4
:10394800C2EC2AF0000E036E100E026EB5EC2AF0DF
:10395800000E036E020E026EB5EC2AF0BEEC2AF0E1
:103968002FD0070E16181710D8A411D0C2EC2AF0C1
:10397800000E036E100E026EB5EC2AF0000E036EF8
:10398800070E026EB5EC2AF0BEEC2AF019D0080E2C
:1039980016181710D8A411D0C2EC2AF0000E036E26
:1039A800100E026EB5EC2AF0000E036E080E026EC1
:1039B800B5EC2AF0BEEC2AF003D01668176812009E
:1039C800C2EC2AF0000E036E110E026EB5EC2AF05E
:1039D800000E1E6E000E5EEC2AF0186E196A1E505C
:1039E800020D1A0EF324D96E000EF420DA6E18C0F8
:1039F800DEFF19C0DDFF1E2A1E50D8B4EBD7010E1A
:103A08005EEC2AF0186E18501C6E1D6ABEEC2AF087
:103A18001C50196E186A1A501810166E1B5019107F
:103A2800176E1200000E126E08AE12D0081E071E86
:103A3800061E051E041E031E021E016C000E022235
:103A4800032204220522062207220822010E126EF2
:103A580010AE10D0101E0F1E0E1E0D1E0C1E0B1EBB
:103A68000A1E096C000E0A220B220C220D220E22BD
:103A78000F22102209500A100B100C100D100E10F6
:103A88000F101010D8B43CD0010E116E0AD0D89087
:103A980009360A360B360C360D360E360F3610360A
:103AA800112A10AEF4D70950015C0A5002580B5085
:103AB80003580C5004580D5005580E5006580F5016
:103AC800075810500858D8A010D00950015E0A5065
:103AD800025A0B50035A0C50045A0D50055A0E50F6
:103AE800065A0F50075A1050085AD89010320F3201
:103AF8000E320D320C320B320A320932112ED3D764
:103B08001250D8B410D0081E071E061E051E041E2B
:103B1800031E021E016C000E02220322042205224B
:103B280006220722082201C001F002C002F003C0E9
:103B380003F004C004F005C005F006C006F007C095
:103B480007F008C008F01200F6C007F0F7C008F048
:103B580067EC29F021EEB6F0080EEBCFDBFFE806A4
:103B6800FCE2800E9FEC2AF0070E7E6E7D0EE82E9A
:103B7800FED77E2EFCD700F00101B651B711D8A4AC
:103B880008D0C70E0001EA6FFE0EEB6F37EC2AF083
:103B98001200260E0001EA6FFF0EEB6FF6C0ECF084
:103BA800F7C0EDF037EC2AF0C00E9FEC2AF00101C7
:103BB800BD51D8A40CD0890E0001EA6FFF0EEB6F3F
:103BC800D40EEC6FFF0EED6F37EC2AF007D0330EF2
:103BD8000001EA6FFF0EEB6F37EC2AF0900E9FECB6
:103BE8002AF00101BE51D8A40CD0D40E0001EA6F0E
:103BF800FD0EEB6F000EED6F4E0EEC6F37EC2AF0FA
:103C080007D0F80E0001EA6FFD0EEB6F37EC2AF0D3
:103C1800D00E9FEC2AF0B9C1B0F1BAC1B1F1BBC165
:103C2800B2F1BCC1B3F1B0C101F0B1C102F0B2C18F
:103C380003F0B3C104F04DEC20F001C0B4F102C0B0
:103C4800B5F14C0E0001EA6FFE0EEB6FB4C1ECF05B
:103C5800B5C1EDF037EC2AF01200000E086E000E28
:103C6800076E000E086E000E076E07C001F008C050
:103C780002F0000E046E090E036E4BEC2AF0000EE3
:103C88000124D96E010E0220DA6E000EDE6E000EDF
:103C9800DD6E07C001F008C002F0000E046E090EC8
:103CA800036E4BEC2AF0020E0124D96E010E02209D
:103CB800DA6E000EDF6E07C001F008C002F0000ED9
:103CC800046E090E036E4BEC2AF0030E0124D96E24
:103CD800010E0220DA6E000EDE6E000EDE6E000EA1
:103CE800DE6E000EDD6E07C001F008C002F0000EA7
:103CF800046E090E036E4BEC2AF0070E0124D96EF0
:103D0800010E0220DA6E000EDF6E07C001F008C057
:103D180002F0000E046E090E036E4BEC2AF0080E3A
:103D28000124D96E010E0220DA6E000EDF6E074AFA
:103D3800082A08BE9AD7085004E10A0E075CD8A0E2
:103D480094D7000E01018D6F000E8C6F12000D6E5E
:103D580001018C4B8D2B8CC10EF08DC10FF00EC064
:103D680001F00FC002F0000E046E090E036E4BEC5A
:103D78002AF0F70E0124D96E000E0220DA6E0EC06A
:103D8800DEFF0FC0DDFF0EC001F00FC002F0000E15
:103D9800046E090E036E4BEC2AF0F90E0124D96E5D
:103DA800000E0220DA6E0DC0DFFF0EC001F00FC05A
:103DB80002F0000E046E090E036E4BEC2AF0FA0EA8
:103DC8000124D96E000E0220DA6E07C0DEFF08C09B
:103DD800DEFF09C0DEFF0AC0DEFF0EC001F00FC023
:103DE80002F0000E046E090E036E4BEC2AF0FE0E74
:103DF8000124D96E000E0220DA6E0BC0DFFF0EC060
:103E080001F00FC002F0000E046E090E036E4BECB9
:103E18002AF0FF0E0124D96E000E0220DA6E0CC0C3
:103E2800DFFF1200949AFAEC26F046C070F047C003
:103E380071F048C072F049C073F001D08B8A80ECF1
:103E480022F016501710D8B428D070C060F071C096
:103E580061F072C062F073C063F0FAEC26F046C0FD
:103E68005CF047C05DF048C05EF049C05FF0B4EC5C
:103E780028F05CC064F05DC065F05EC066F05FC0AD
:103E880067F09A0E686E990E696E190E6A6E3F0E8B
:103E98006B6E7FEC1FF0D8A0D1D79A0E646E990E86
:103EA800656E190E666E3F0E676E70C060F071C069
:103EB80061F072C062F073C063F0FAEC26F046C09D
:103EC8005CF047C05DF048C05EF049C05FF0B4ECFC
:103ED80028F05CC068F05DC069F05EC06AF05FC041
:103EE8006BF07FEC1FF0D8B003D08B9A000E120055
:103EF8008B9A010E1200000E64146C6E000E65148D
:103F08006D6E800E66146E6E7F0E67146F6E6C5049
:103F18006D106E106F10D8A408D0000E646E000EDD
:103F2800656E000E666E000E676E000E68146C6E8D
:103F3800000E69146D6E800E6A146E6E7F0E6B141F
:103F48006F6E6C506D106E106F10D8A408D0000EF4
:103F5800686E000E696E000E6A6E000E6B6E67AEBC
:103F680009D0646C651ED8B0652A661ED8B0662A6A
:103F7800800E67566BAE09D0686C691ED8B0692A86
:103F88006A1ED8B06A2A800E6B56000E641A000E9C
:103F9800651A000E661A800E671A000E681A000E5F
:103FA800691A000E6A1A800E6B1A6850645C6950B0
:103FB80065586A5066586B506758D8B002D0D89088
:103FC8001200D88012005EC10BF05FC10CF060C116
:103FD8000DF061C10EF001C00BF002C00CF003C07F
:103FE8000DF004C00EF00BC005F00CC006F00DC0BB
:103FF80007F00EC008F0180E05D0D8900832073226
:1040080006320532E82EF9D70550096E0A6A0950BA
:104018000A10D8A419D0D8900B34056E0C34066E4B
:104028000D34076E0E34086E055006100710081080
:10403800D8A405D0000E026E020E016E1200000E0A
:10404800026E030E016E120009280A10D8A41CD0B3
:104058000BC005F00CC006F00DC007F00EC008F04C
:10406800090ED8900536063607360836E82EF9D7F1
:104078000550061007100810D8A402D0010E01D070
:10408800000E016E026A1200000E026E040E016E2E
:104098001200033404340A6E0A50D8A409D0000E62
:1040A800016E000E026E000E036E000E046E12000A
:1040B80001C005F002C006F003C007F004C008F014
:1040C800200E05D0D8900832073206320532E82E85
:1040D800F9D70550096E038EFF0E0116FF0E021662
:1040E800FF0E0316000E0416960E0A5E0AAE0DD0D9
:1040F8000A50800A970FD8A0D2D7D890043203323A
:10410800023201320A3EF9D70DD01F0E0A6407D0D9
:10411800C6D7D89001360236033604360A060A5046
:10412800D8A4F7D70950D8B408D0041E031E021E1D
:10413800016C000E02220322042201C001F002C019
:1041480002F003C003F004C004F01200A00E0E6ECB
:10415800860E0F6E010E106E000E116E28EC27F001
:10416800C2EC2AF0000E036E100E026EB5EC2AF0B7
:10417800000E036E0B0E026EB5EC2AF0BEEC2AF0B0
:10418800410E186EEE0EE82EFED7182EFCD700D082
:10419800C2EC2AF0000E036E110E026EB5EC2AF086
:1041A800000E1E6E000E5EEC2AF0186E196A1E5084
:1041B800020D1A0EF324D96E000EF420DA6E18C020
:1041C800DEFF19C0DDFF1E2A1E50D8B4EBD7010E42
:1041D8005EEC2AF0186E18501C6E1D6ABEEC2AF0B0
:1041E8001C50196E186A1A501810166E1B501910A8
:1041F800176E120001C008F002C009F003C00AF0EF
:1042080004C00BF00506D8A0060605280FE106280D
:10421800D8A40CD0000E026E000E016E1200084ADF
:10422800092A0A4A0B2A0506D8A0060608C0D9FF9B
:1042380009C0DAFFDF50D8B41CD00AC0F6FF0BC0A3
:10424800F7FF0800F5500009D8B413D00550061040
:10425800D8B40FD008C0D9FF09C0DAFFDF50076E05
:104268000AC0F6FF0BC0F7FF0800F5500718D8B4CE
:10427800D6D708C0D9FF09C0DAFFDF50076E0AC0D9
:10428800F6FF0BC0F7FF0800F550075C016E026AE5
:10429800D8A002061200010188A10AD017C00EF0AA
:1042A80018C00FF015C010F016C011F018EC29F066
:1042B8001ABE05D019C01EF01AC01FF004D0000E97
:1042C8001F6E000E1E6E000E1D6E000E1C6E0CD0B2
:1042D800000E066E200E056E15C007F016C008F019
:1042E800CBEC25F01C4A1D2A1E501C5C1D50800A70
:1042F8001B6E1F50800A1B58D8A0EAD7010188B14D
:104308000AD017C00EF018C00FF015C010F016C074
:1043180011F018EC29F017C001F018C002F0D7EC22
:1043280028F01E500124156E1F500220166E120030
:10433800A00E0E6E860E0F6E010E106E000E116E20
:1043480028EC27F0C2EC2AF0000E036E100E026E65
:10435800B5EC2AF0000E036E0A0E026EB5EC2AF0D8
:10436800BEEC2AF0C2EC2AF0000E036E110E026EAB
:10437800B5EC2AF0000E1E6E000E5EEC2AF0186EE8
:10438800196A1E50020D1A0EF324D96E000EF4207D
:10439800DA6E18C0DEFF19C0DDFF1E2A1E50D8B421
:1043A800EBD7010E5EEC2AF0186E18501C6E1D6AD1
:1043B800BEEC2AF01C50196E186A1A501810166EA6
:1043C8001B501910176E1200A00E0E6E860E0F6E7F
:1043D800010E106E000E116E28EC27F0C2EC2AF0C8
:1043E800000E036E100E026EB5EC2AF0000E036E7E
:1043F800060E026EB5EC2AF0BEEC2AF0C2EC2AF0EA
:10440800000E036E110E026EB5EC2AF0000E1E6E41
:10441800000E5EEC2AF0186E196A1E50020D1A0E74
:10442800F324D96E000EF420DA6E18C0DEFF19C02E
:10443800DDFF1E2A1E50D8B4EBD7010E5EEC2AF021
:10444800186E18501C6E1D6ABEEC2AF01C50196EAE
:10445800186A1A501810166E1B501910176E120091
:10446800A00E0E6E860E0F6E010E106E000E116EEF
:1044780028EC27F0C2EC2AF0000E036E100E026E34
:10448800B5EC2AF0000E036E000E026EB5EC2AF0B1
:10449800BEEC2AF0C2EC2AF0000E036E110E026E7A
:1044A800B5EC2AF0000E1E6E000E5EEC2AF0186EB7
:1044B800196A1E50020D1A0EF324D96E000EF4204C
:1044C800DA6E18C0DEFF19C0DDFF1E2A1E50D8B4F0
:1044D800EBD7010E5EEC2AF0186E18501C6E1D6AA0
:1044E800BEEC2AF01C50196E186A1A501810166E75
:1044F8001B501910176E1200A00E0E6E860E0F6E4E
:10450800010E106E000E116E28EC27F0C2EC2AF096
:10451800000E036E100E026EB5EC2AF0000E036E4C
:10452800040E026EB5EC2AF0BEEC2AF0C2EC2AF0BA
:10453800000E036E110E026EB5EC2AF0000E1E6E10
:10454800000E5EEC2AF0186E196A1E50020D1A0E43
:10455800F324D96E000EF420DA6E18C0DEFF19C0FD
:10456800DDFF1E2A1E50D8B4EBD7010E5EEC2AF0F0
:10457800186E18501C6E1D6ABEEC2AF01C50196E7D
:10458800186A1A501810166E1B501910176E120060
:10459800A00E0E6E860E0F6E010E106E000E116EBE
:1045A80028EC27F0C2EC2AF0000E036E100E026E03
:1045B800B5EC2AF0000E036E030E026EB5EC2AF07D
:1045C800BEEC2AF0C2EC2AF0000E036E110E026E49
:1045D800B5EC2AF0000E1E6E000E5EEC2AF0186E86
:1045E800196A1E50020D1A0EF324D96E000EF4201B
:1045F800DA6E18C0DEFF19C0DDFF1E2A1E50D8B4BF
:10460800EBD7010E5EEC2AF0186E18501C6E1D6A6E
:10461800BEEC2AF01C50196E186A1A501810166E43
:104628001B501910176E1200A00E0E6E860E0F6E1C
:10463800010E106E000E116E28EC27F0C2EC2AF065
:10464800000E036E100E026EB5EC2AF0000E036E1B
:10465800050E026EB5EC2AF0BEEC2AF0C2EC2AF088
:10466800000E036E110E026EB5EC2AF0000E1E6EDF
:10467800000E5EEC2AF0186E196A1E50020D1A0E12
:10468800F324D96E000EF420DA6E18C0DEFF19C0CC
:10469800DDFF1E2A1E50D8B4EBD7010E5EEC2AF0BF
:1046A800186E18501C6E1D6ABEEC2AF01C50196E4C
:1046B800186A1A501810166E1B501910176E12002F
:1046C800000E0114096E000E02140A6E800E031407
:1046D8000B6E7F0E04140C6E09500A100B100C1090
:1046E800D8A408D0000E016E000E026E000E036EF4
:1046F800000E046E000E0514096E000E06140A6EF4
:10470800800E07140B6E7F0E08140C6E09500A10E9
:104718000B100C10D8A408D0000E056E000E066E03
:10472800000E076E000E086E055001180AE10650CB
:10473800021807E10750031804E108500418D8B418
:1047480002D0D8901200D8801200000E066E04AE77
:1047580006D0036C041ED8B0042A010E066E02AE01
:1047680006D0016C021ED8B0022A010E061A000EED
:10477800086E000E076E03500410D8B41CD0010E4A
:10478800056E04D0D89003360436052A04AEFAD74D
:10479800D890073608360350015C04500258D8A058
:1047A80005D00350015E0450025A0780D8900432A5
:1047B8000332052EEDD70650D8B404D0076C081E76
:1047C800D8B0082A07C001F008C002F01200000E95
:1047D800096E000E0A6E000E0B6E000E0C6E055070
:1047E800061007100810D8B42AD0010E0D6E06D096
:1047F800D89005360636073608360D2A08AEF8D79B
:10480800D89009360A360B360C360550015C06502E
:1048180002580750035808500458D8A009D005502A
:10482800015E0650025A0750035A0850045A09807C
:10483800D89008320732063205320D2EE1D709C06A
:1048480001F00AC002F00BC003F00CC004F0120023
:1048580062C11FF063C120F064C121F065C122F07C
:10486800010E40EC1BF01FC02DF020C02EF021C01F
:104878002FF022C030F0950E316EBF0E326ED60E7C
:10488800336E3C0E346EA4EC0AF02DC0F6F02EC048
:10489800F7F02FC0F8F030C0F9F0800E9FEC2AF046
:1048A800070E7E6E7D0EE82EFED77E2EFCD700F01A
:1048B800D50E0001EA6FFE0EEB6FF6C0ECF0F7C004
:1048C800EDF0F8C0EEF0F9C0EFF037EC2AF0120086
:1048D8009490949294941CD08B908B928B94120009
:1048E8008B908B928B8412008B908B828B9412000E
:1048F8008B908B828B8412008B808B928B9412000E
:104908008B808B928B8412008B808B828B9412000D
:1049180001C003F002C004F00450000AD8A4120039
:104928000350000AD8B4D8D7010AD8B4D9D7030A93
:10493800D8B4DAD7010AD8B4DBD7070AD8B4DCD799
:10494800010AD8B4DDD7030AD8A41200DDD734ECA5
:1049580022F016C0B4F117C0B5F1B4C1B0F1B5C1B9
:10496800B1F1E8EC21F01CD0000E026E050E016ECC
:104978006CEC24F034EC22F016C0B4F117C0B5F199
:10498800E8EC21F016C0B2F117C0B3F1B4C1F6F0EB
:10499800B5C1F7F0B2C1F8F0B3C1F9F09BEC26F05D
:1049A8000101B051B45D0001FC6F0101B151B5596D
:1049B8000001FD6FFC51FA5DFD51FB59D8A01200B2
:1049C800D3D734EC22F016C0B4F117C0B5F1B4C196
:1049D800B0F1B5C1B1F1E8EC21F01CD0000E026EC7
:1049E800040E016E6CEC24F034EC22F016C0B4F125
:1049F80017C0B5F1E8EC21F016C0B2F117C0B3F159
:104A0800B4C1F6F0B5C1F7F0B2C1F8F0B3C1F9F02E
:104A18009BEC26F00101B051B45D0001FC6F01016F
:104A2800B151B5590001FD6FFC51FA5DFD51FB59BB
:104A3800D8A01200D3D734EC22F016C0B4F117C0B6
:104A4800B5F1B4C1B0F1B5C1B1F1E8EC21F01CD0B9
:104A5800000E026E010E016E6CEC24F034EC22F0B4
:104A680016C0B4F117C0B5F1E8EC21F016C0B2F1E8
:104A780017C0B3F1B4C1F6F0B5C1F7F0B2C1F8F0A0
:104A8800B3C1F9F09BEC26F00101B051B45D00010F
:104A9800FC6F0101B151B5590001FD6FFC51FA5D80
:104AA800FD51FB59D8A01200D3D734EC22F016C020
:104AB800B4F117C0B5F1B4C1B0F1B5C1B1F1E8ECCA
:104AC80021F01CD0000E026E020E016E6CEC24F078
:104AD80034EC22F016C0B4F117C0B5F1E8EC21F0BF
:104AE80016C0B2F117C0B3F1B4C1F6F0B5C1F7F012
:104AF800B2C1F8F0B3C1F9F09BEC26F00101B05156
:104B0800B45D0001FC6F0101B151B5590001FD6FA1
:104B1800FC51FA5DFD51FB59D8A01200D3D7000E05
:104B2800066E02AE06D0016C021ED8B0022A010E33
:104B3800066E04AE04D0036C041ED8B0042A0350D9
:104B48000410D8B418D0010E056E04D0D8900336DE
:104B58000436052A04AEFAD70350015C0450025803
:104B6800D8A004D00350015E0450025AD8900432F1
:104B78000332052EF1D70650D8B404D0016C021EBA
:104B8800D8B0022A01C001F002C002F0120007509A
:104B98000810D8B404D007500810D8A404D0055081
:104BA80099EC2AF0120020EE04F00750D92608509C
:104BB800DA22DE50DE10D8B416D020EE04F007500A
:104BC800D9260850DA2210EE02F00750E1260850E4
:104BD800E222DE50E65CE650800A0D6EDE50800A66
:104BE8000D58D8B0120020EE02F00750D926085010
:104BF800DA22DE2A000EDD221200310E056EB20E18
:104C0800E82EFED7052EFCD700D08C94030E7CEC42
:104C18002AF0110E056E3A0EE82EFED7052EFCD7A7
:104C280000D0030E7CEC2AF07D0EE82EFED7320E63
:104C380090EC2AF0280E90EC2AF0080E90EC2AF05E
:104C4800010E90EC2AF0110E056E3A0EE82EFED7F2
:104C5800052EFCD700D0060E90EC2AF00F0E9FEC24
:104C68002AF01200000E086E010E076E67EC29F09C
:104C780021EEB4F0080EEBCFDBFFE806FCE2800E75
:104C88009FEC2AF0070E7E6E7D0EE82EFED77E2E54
:104C9800FCD700F08B0E0001EA6FFE0EEB6F37ECCD
:104CA8002AF0900E9FEC2AF0F10E0001EA6FFE0E3A
:104CB800EB6F37EC2AF0D00E9FEC2AF0590E00016A
:104CC800EA6FFF0EEB6F37EC2AF01200800E9FECB4
:104CD8002AF0070E7E6E7D0EE82EFED77E2EFCD7BC
:104CE80000F01A0E0001EA6FFE0EEB6F37EC2AF0A7
:104CF800C00E9FEC2AF05C0E0001EA6FFE0EEB6F0F
:104D080037EC2AF0900E9FEC2AF0E30E0001EA6FD0
:104D1800FE0EEB6F37EC2AF0D00E9FEC2AF03C0E1B
:104D28000001EA6FFE0EEB6F37EC2AF01200010E5D
:104D38009FEC2AF0110E7E6E3A0EE82EFED77E2EDC
:104D4800FCD700D0800E9FEC2AF0070E7E6E7D0EF9
:104D5800E82EFED77E2EFCD700F04C0E0001EA6F3D
:104D6800FE0EEB6FF6C0ECF0F7C0EDF037EC2AF072
:104D7800C00E9FEC2AF02B0E0001EA6FFE0EEB6FBF
:104D8800F8C0ECF0F9C0EDF037EC2AF01200E6C0FC
:104D98007CF0E7C07DF0000E0101836F000E826F8A
:104DA80017D0E4C0B8F0E5C0B9F07C0E0001BA6FC6
:104DB800000EBB6FE8C0BCF0E9C0BDF0FBEC04F02E
:104DC8000001B851010182270001B9510101832373
:104DD8007CC0F6FF7DC0F7FF0800F5500009D8A495
:104DE800E0D782C1E4F083C1E5F0120062C11FF090
:104DF80063C120F064C121F065C122F0010E40ECCE
:104E08001BF01FC02DF020C02EF021C02FF022C0B3
:104E180030F0950E316EBF0E326ED60E336E3C0EEC
:104E2800346EA4EC0AF02DC04AF02EC04BF02FC00F
:104E38004CF030C04DF04AC046F04BC047F04CC073
:104E480048F04DC049F01200C69A94869488800EA6
:104E5800016E960E026E980E036E000E046E0EC062
:104E680012F00FC013F010C014F011C015F0020EAC
:104E7800D8901236133614361536E82EF9D712C0E4
:104E880005F013C006F014C007F015C008F0EBECED
:104E980023F00104C86E800EC76E280EC66E000E81
:104EA800C56E120034EC22F016C04AF017C04BF061
:104EB8004AC01FF04BC020F0000E20BEFF0E216E2E
:104EC800226E010E40EC1BF01FC02DF020C02EF00A
:104ED80021C02FF022C030F0750E316E720E326E86
:104EE800B40E336E3F0E346EA4EC0AF02DC046F0BB
:104EF8002EC047F02FC048F030C049F0120003C060
:104F080007F004C008F001C009F002C00AF0075019
:104F1800056E0850066E074A082A05C0F6FF06C047
:104F2800F7FF000EF86E09C0D9FF0AC0DAFF094A78
:104F38000A2A0F0EF76403D00800F55005D0F6CF03
:104F4800E9FFF7CFEAFFEF50DF6EDF50D8B4120069
:104F5800DED7010184518511D8A405D084C123F07E
:104F680085C124F006D0FF0E8425236EFF0E85210F
:104F7800246E22C000F2000E0201016F20C015F05D
:104F880021C016F0000E176E020E186E23C019F01D
:104F980024C01AF04FEC21F015C020F016C021F003
:104FA8001200800E9FEC2AF0070E7E6E7D0EE82E12
:104FB800FED77E2EFCD700F04D0E0001EA6FFF0EE3
:104FC800EB6F37EC2AF0C00E9FEC2AF09A0E000126
:104FD800EA6FFE0EEB6F37EC2AF0900E9FEC2AF08A
:104FE800BC0E0001EA6FFF0EEB6F37EC2AF01200DF
:104FF800BF0E096EFF0E0A6E07C00BF008C00CF05A
:1050080009500B260A500C220C5006E11A0E0B5CB4
:10501800D8B002D0010E01D0000E0D6E0E6A0D50F0
:105028000E10D8B406D0200E0710076E0850086E70
:10503800120007C007F008C008F0120007C001F00E
:1050480008C002F0000E046E090E036E4BEC2AF045
:10505800FE0E0124D96E000E0220DA6E09C0DFFFB1
:1050680007C001F008C002F0000E046E090E036EBE
:105078004BEC2AF0FF0E0124D96E000E0220DA6EE6
:105088000AC0DFFF1200000E026E040E016E6CEC07
:1050980024F0070E206E580E1F6E5A0EE82EFED70B
:1050A8001F2EFCD7202EFAD706D0000E026E040E53
:1050B800016E6CEC24F018EC23F016501710D8A4ED
:1050C800F4D7000E026E000E016E6CEC24F0120094
:1050D8009F0E096EFF0E0A6E07C00BF008C00CF099
:1050E80009500B260A500C220C5006E11A0E0B5CD4
:1050F800D8B002D0010E01D0000E0D6E0E6A0D5010
:105108000E10D8B405D05F0E0714076E086A120097
:1051180007C007F008C008F012004A0EF66E550ED8
:10512800F76E000EF86E01EEF2F010EE0BF00900CB
:10513800F5CFEEFFE550E150FAE102EE00F0500E37
:10514800EE6AE806FDE101EE00F0B00EEE6AE80650
:10515800FDE17F907F92000EF86E000188EF18F055
:10516800000E601A000E611A000E621A800E631A91
:105178005CC04CF05DC04DF05EC04EF05FC04FF0BB
:1051880060C050F061C051F062C052F063C053F08B
:10519800EFEC0DF04CC05CF04DC05DF04EC05EF021
:1051A8004FC05FF0120001C003F002C004F002D04B
:1051B800014A022A01C0F6FF02C0F7FF000EF86E8E
:1051C8000F0EF76403D00800F55005D0F6CFE9FFBD
:1051D800F7CFEAFFEF500009D8A4EAD70350015CE3
:1051E800016E04500258026E1200010E076E200E66
:1051F80001180210D8B414D0F70E036EFF0E046E17
:1052080001C005F002C006F003500526045006222E
:10521800065004E1050E055CD8A002D0000E076E0A
:1052280007C001F0026A1200000E146E000E136E21
:105238000BD012C005F0066A10C007F011C008F0C4
:10524800CBEC25F0134A142A13500E24D96E1450AF
:105258000F20DA6EDF50126E1250D8B41200E9D760
:105268009F0E036EFF0E046E200E0110056E000ED9
:105278000210066E0350052604500622065006E169
:105288001A0E055CD8B002D0010E01D0000E016ED6
:10529800026A120014BE05D0145010E11304D8B0ED
:1052A8000DD013C015F014C016F0151E161E154AA1
:1052B800162A15C013F016C014F0120013C013F00C
:1052C80014C014F0120007C001F008C002F0000E6C
:1052D800046E090E036E4BEC2AF0F70E0124D96E0A
:1052E800000E0220DA6E00EE07F0080EDBCFEBFFAF
:1052F800E806FCE212009F0E036EFF0E046E01C06A
:1053080005F002C006F00350052604500622065098
:1053180006E11A0E055CD8B002D0010E01D0000ECD
:10532800016E026A1200BF0E036EFF0E046E01C00A
:1053380005F002C006F00350052604500622065068
:1053480006E11A0E055CD8B002D0010E01D0000E9D
:10535800016E026A1200D00E036EFF0E046E01C0C9
:1053680005F002C006F00350052604500622065038
:1053780006E10A0E055CD8B002D0010E01D0000E7D
:10538800016E026A1200800E9FEC2AF0070E7E6EF4
:105398007D0EE82EFED77E2EFCD700F07C0E000195
:1053A800EA6FFE0EEB6FF6C0ECF0F7C0EDF037ECED
:1053B8002AF01200800E9FEC2AF0070E7E6E7D0EFA
:1053C800E82EFED77E2EFCD700F0090E0001EA6F0A
:1053D800FE0EEB6FF6C0ECF0F7C0EDF037EC2AF0FC
:1053E80012000150021003100410D8B408D0000EA7
:1053F800011A000E021A000E031A800E041A01C0C8
:1054080001F002C002F003C003F004C004F012006F
:105418000600F0A007D0F090010E0101926F8138CC
:105428000F0B916FF2A408D0010E01016227000E44
:10543800632364236523F2947F921100000EF2BE69
:10544800010E016EF29E8C86140EE82EFED700D057
:105458008C96530EE82EFED700F001B002D0F29ED3
:1054680001D0F28E1200EC0E0001F46F000EF56F01
:10547800000EE46F000EE56FEAC0E6F0EBC0E7F05F
:10548800F40EE86F000EE96FCBEC26F01200015025
:105498000302F3CF05F0F4CF06F001500402F350F5
:1054A800062602500302F350062605C001F006C086
:1054B80002F01200026E87EC2AF0C58687EC2AF00B
:1054C800C9CF03F087EC2AF002B002D0C59A01D008
:1054D800C58AC5880350120080EC22F01604171004
:1054E800D8A403D016EC1FF01200B7EC17F0120086
:1054F800026E8C500F0B8C6E0238F00B8C108C6E79
:1055080022EC2AF01200C7B4FED7C5CF01F01F0E57
:105518000116D8B41200F7D7036E03380F0B7CECD2
:105528002AF003507CEC2AF01200046E8C8404509C
:1055380090EC2AF01200046E8C94045090EC2AF03F
:0D5548001200286E756C6C29000101A40191
:105556008AC101F08BC102F012008CC101F08DC12D
:1055660002F0120087EC2AF002C0C9FF1200010106
:105576008A4B8B2B120087EC2AF0C584120087EC2D
:065586002AF0C5801200AE
:10FD7A000000400104060219D300940082004B00DF
:10FD8A00FF00000000FF000000FFFF00008CFF00E2
:10FD9A000000FF00FFFFFF008080800000000000DD
:10FDAA00C7C5C4C3C2C1C0B4B3B2B13A3938363513
:10FDBA0034302C2B2A292826212013121110010055
:10FDCA0080A08000041080501040526563656976F7
:10FDDA00652042616C6C3F3A202563004465746576
:10FDEA00637465642043616E697374657200526559
:10FDFA0063656976652042616C6C3F3A205900233D
:10FE0A002042616C6C7320476976656E3A256400FE
:10FE1A00312E4F7065726174696F6E2054696D6519
:10FE2A000044697374616E6365323A202564206305
:10FE3A006D00342E43616E69737465722044617477
:10FE4A00610044697374616E63653A2025642063B6
:10FE5A006D00322E232042616C6C732047697665EF
:10FE6A006E004465706F736974696E672042616CD5
:10FE7A006C00232043616E6973746572733A25645A
:10FE8A00005461736B20436F6D706C657465640018
:10FE9A0043616E697374657220746F206265002510
:10FEAA003032782F253032782F25303278002530BD
:10FEBA0032783A253032783A253032780045525233
:10FECA004F5220494E56414C49440054696D653A97
:10FEDA002025332E3266207300332E232043616E91
:10FEEA0069737465727300507265737320416E7919
:10FEFA00204B657900313A2025642C20323A20259E
:10FF0A006400636F756E745B305D3A20256400632C
:10FF1A006F756E745B315D3A2025640043616E69CA
:10FF2A00737465723A202564005374617475733A68
:10FF3A002046756C6C0046726F6E74206F662043A3
:10FF4A00616E0050726573732023206F662000541F
:10FF5A006F20436F6E74696E7565004469676974D2
:10FF6A00616C3A2025640044697374313A20252E65
:10FF7A0032660044697374323A20252E3266005381
:10FF8A0074617475733A2025730044697374313A45
:10FF9A002025640044697374323A20256400313A9A
:10FFAA00256420323A256400333A256420343A2500
:10FFBA00640053656C656374656400546F20426520
:10FFCA0067696E004572726F7200456D70747900D0
:10FFDA00353A256400443A2564004261636B00495E
:10FFEA004E46004E414E00696E66006E616E006CB0
:06FFFA006600484900000A
:020000040020DA
:08000000FFFFFFFFFFFFFFFF00
:020000040030CA
:0E000000FF021F1EFF8381FF0F400FE00F4025
:00000001FF
